:100EFC000A128A11DA2F031383123F3085000A126B
:100F0C008A11080003138312063085000A128A1115
:100F1C000800031383125B3085000A128A11080043
:100F2C00031383124F3085000A128A110800031331
:100F3C008312663085000A128A110800031383128B
:100F4C006D3085000A128A110800031383127D305C
:100F5C0085000A128A1108000313831207308500DA
:100F6C000A128A110800031383127F3085000A12BB
:100F7C008A110800031383126F3085000A128A113C
:100F8C000800FF30A2000A128A11A20BCB2F080016
:100F9C00FF30A100C727A10BD02F08000830A000FC
:100FAC00CE27A00BD62F08000310831203130317B0
:100FBC0083168801031383160030850003138312F4
:100FCC0085010313831670308F008127D42788275F
:100FDC00D4278F27D4279627D4279D27D427A42717
:100FEC00D427AB27D427B227D427B927D427C02797
:040FFC00D427EB2FDC
:04400E00C418FF3F94
:00000001FF
